{
  "contractName": "Bets",
  "abi": [
    {
      "inputs": [],
      "stateMutability": "nonpayable",
      "type": "constructor"
    },
    {
      "anonymous": false,
      "inputs": [
        {
          "indexed": false,
          "internalType": "uint256",
          "name": "betId",
          "type": "uint256"
        },
        {
          "indexed": false,
          "internalType": "uint256",
          "name": "poolA",
          "type": "uint256"
        },
        {
          "indexed": false,
          "internalType": "uint256",
          "name": "poolB",
          "type": "uint256"
        },
        {
          "indexed": false,
          "internalType": "uint256",
          "name": "poolDraw",
          "type": "uint256"
        },
        {
          "indexed": false,
          "internalType": "string",
          "name": "optionA",
          "type": "string"
        },
        {
          "indexed": false,
          "internalType": "string",
          "name": "optionB",
          "type": "string"
        },
        {
          "indexed": false,
          "internalType": "string",
          "name": "optionC",
          "type": "string"
        },
        {
          "indexed": false,
          "internalType": "enum Bets.State",
          "name": "state",
          "type": "uint8"
        },
        {
          "indexed": false,
          "internalType": "enum Bets.Winner",
          "name": "winner",
          "type": "uint8"
        }
      ],
      "name": "BetCreated",
      "type": "event"
    },
    {
      "anonymous": false,
      "inputs": [
        {
          "indexed": false,
          "internalType": "string",
          "name": "messeger",
          "type": "string"
        }
      ],
      "name": "Constructor",
      "type": "event"
    },
    {
      "anonymous": false,
      "inputs": [
        {
          "indexed": true,
          "internalType": "address",
          "name": "previousOwner",
          "type": "address"
        },
        {
          "indexed": true,
          "internalType": "address",
          "name": "newOwner",
          "type": "address"
        }
      ],
      "name": "OwnershipTransferred",
      "type": "event"
    },
    {
      "inputs": [
        {
          "internalType": "uint256",
          "name": "",
          "type": "uint256"
        }
      ],
      "name": "bets",
      "outputs": [
        {
          "internalType": "uint256",
          "name": "betId",
          "type": "uint256"
        },
        {
          "internalType": "uint256",
          "name": "poolA",
          "type": "uint256"
        },
        {
          "internalType": "uint256",
          "name": "poolB",
          "type": "uint256"
        },
        {
          "internalType": "uint256",
          "name": "poolDraw",
          "type": "uint256"
        },
        {
          "internalType": "string",
          "name": "optionA",
          "type": "string"
        },
        {
          "internalType": "string",
          "name": "optionB",
          "type": "string"
        },
        {
          "internalType": "string",
          "name": "optionC",
          "type": "string"
        },
        {
          "internalType": "enum Bets.State",
          "name": "state",
          "type": "uint8"
        },
        {
          "internalType": "enum Bets.Winner",
          "name": "winner",
          "type": "uint8"
        }
      ],
      "stateMutability": "view",
      "type": "function",
      "constant": true
    },
    {
      "inputs": [],
      "name": "ownable",
      "outputs": [],
      "stateMutability": "nonpayable",
      "type": "function"
    },
    {
      "inputs": [],
      "name": "owner",
      "outputs": [
        {
          "internalType": "address",
          "name": "",
          "type": "address"
        }
      ],
      "stateMutability": "view",
      "type": "function",
      "constant": true
    },
    {
      "inputs": [
        {
          "internalType": "uint256",
          "name": "",
          "type": "uint256"
        }
      ],
      "name": "punters",
      "outputs": [
        {
          "internalType": "uint256",
          "name": "punterId",
          "type": "uint256"
        },
        {
          "internalType": "address payable",
          "name": "account",
          "type": "address"
        },
        {
          "internalType": "uint256",
          "name": "betId",
          "type": "uint256"
        },
        {
          "internalType": "uint256",
          "name": "choiceId",
          "type": "uint256"
        },
        {
          "internalType": "uint256",
          "name": "amount",
          "type": "uint256"
        }
      ],
      "stateMutability": "view",
      "type": "function",
      "constant": true
    },
    {
      "inputs": [
        {
          "internalType": "address",
          "name": "newOwner",
          "type": "address"
        }
      ],
      "name": "transferOwnership",
      "outputs": [],
      "stateMutability": "nonpayable",
      "type": "function"
    },
    {
      "inputs": [
        {
          "internalType": "string",
          "name": "a",
          "type": "string"
        },
        {
          "internalType": "string",
          "name": "b",
          "type": "string"
        }
      ],
      "name": "createBet",
      "outputs": [],
      "stateMutability": "nonpayable",
      "type": "function"
    },
    {
      "inputs": [
        {
          "internalType": "uint256",
          "name": "betId",
          "type": "uint256"
        },
        {
          "internalType": "uint256",
          "name": "choice",
          "type": "uint256"
        }
      ],
      "name": "bet",
      "outputs": [],
      "stateMutability": "payable",
      "type": "function",
      "payable": true
    },
    {
      "inputs": [
        {
          "internalType": "uint256",
          "name": "_betId",
          "type": "uint256"
        },
        {
          "internalType": "uint256",
          "name": "option",
          "type": "uint256"
        }
      ],
      "name": "getPunters",
      "outputs": [
        {
          "components": [
            {
              "internalType": "uint256",
              "name": "punterId",
              "type": "uint256"
            },
            {
              "internalType": "address payable",
              "name": "account",
              "type": "address"
            },
            {
              "internalType": "uint256",
              "name": "betId",
              "type": "uint256"
            },
            {
              "internalType": "uint256",
              "name": "choiceId",
              "type": "uint256"
            },
            {
              "internalType": "uint256",
              "name": "amount",
              "type": "uint256"
            }
          ],
          "internalType": "struct Bets.Punter[]",
          "name": "",
          "type": "tuple[]"
        },
        {
          "internalType": "uint256",
          "name": "size",
          "type": "uint256"
        }
      ],
      "stateMutability": "view",
      "type": "function",
      "constant": true
    },
    {
      "inputs": [
        {
          "internalType": "uint256",
          "name": "_betId",
          "type": "uint256"
        }
      ],
      "name": "refound",
      "outputs": [],
      "stateMutability": "nonpayable",
      "type": "function"
    }
  ],
  "bytecode": "0x60806040526000600155600060025560006003553480156200002057600080fd5b50620000316200006e60201b60201c565b7f5cdbd2d115641480d514ad21e845954c572b104c9df453ef31da638479525400604051620000609062000111565b60405180910390a162000133565b336000806101000a81548173ffffffffffffffffffffffffffffffffffffffff021916908373ffffffffffffffffffffffffffffffffffffffff160217905550565b600082825260208201905092915050565b7f6b656570206275696c64696e6720706121000000000000000000000000000000600082015250565b6000620000f9601183620000b0565b91506200010682620000c1565b602082019050919050565b600060208201905081810360008301526200012c81620000ea565b9050919050565b611bec80620001436000396000f3fe6080604052600436106100865760003560e01c80636ffcc719116100595780636ffcc719146101785780638da5cb5b14610194578063b38854be146101bf578063f2fde38b146101d6578063fcc4dec9146101ff57610086565b806302c0b0461461008b57806322af00fa146100c95780632926b72d1461010e5780634de067f21461014f575b600080fd5b34801561009757600080fd5b506100b260048036038101906100ad9190611188565b610228565b6040516100c092919061133e565b60405180910390f35b3480156100d557600080fd5b506100f060048036038101906100eb919061136e565b61037f565b604051610105999897969594939291906114f3565b60405180910390f35b34801561011a57600080fd5b506101356004803603810190610130919061136e565b61057f565b6040516101469594939291906115a4565b60405180910390f35b34801561015b57600080fd5b506101766004803603810190610171919061172c565b6105d5565b005b610192600480360381019061018d9190611188565b610827565b005b3480156101a057600080fd5b506101a9610a78565b6040516101b691906117c5565b60405180910390f35b3480156101cb57600080fd5b506101d4610a9c565b005b3480156101e257600080fd5b506101fd60048036038101906101f8919061180c565b610ade565b005b34801561020b57600080fd5b506102266004803603810190610221919061136e565b610c2d565b005b60606000836000811015801561023f575060025481105b61024857600080fd5b60606000805b600354811161036e57876005600083815260200190815260200160002060020154141561035b57866005600083815260200190815260200160002060030154141561035a57600560008281526020019081526020016000206040518060a0016040529081600082015481526020016001820160009054906101000a900473ffffffffffffffffffffffffffffffffffffffff1673ffffffffffffffffffffffffffffffffffffffff1673ffffffffffffffffffffffffffffffffffffffff168152602001600282015481526020016003820154815260200160048201548152505083838061033b90611868565b94508151811061034e5761034d6118b1565b5b60200260200101819052505b5b808061036690611868565b91505061024e565b508181945094505050509250929050565b60046020528060005260406000206000915090508060000154908060010154908060020154908060030154908060040180546103ba9061190f565b80601f01602080910402602001604051908101604052809291908181526020018280546103e69061190f565b80156104335780601f1061040857610100808354040283529160200191610433565b820191906000526020600020905b81548152906001019060200180831161041657829003601f168201915b5050505050908060050180546104489061190f565b80601f01602080910402602001604051908101604052809291908181526020018280546104749061190f565b80156104c15780601f10610496576101008083540402835291602001916104c1565b820191906000526020600020905b8154815290600101906020018083116104a457829003601f168201915b5050505050908060060180546104d69061190f565b80601f01602080910402602001604051908101604052809291908181526020018280546105029061190f565b801561054f5780601f106105245761010080835404028352916020019161054f565b820191906000526020600020905b81548152906001019060200180831161053257829003601f168201915b5050505050908060070160009054906101000a900460ff16908060070160019054906101000a900460ff16905089565b60056020528060005260406000206000915090508060000154908060010160009054906101000a900473ffffffffffffffffffffffffffffffffffffffff16908060020154908060030154908060040154905085565b60008054906101000a900473ffffffffffffffffffffffffffffffffffffffff1673ffffffffffffffffffffffffffffffffffffffff163373ffffffffffffffffffffffffffffffffffffffff161461062d57600080fd5b60405180610120016040528060025481526020016000815260200160008152602001600081526020018381526020018281526020016040518060400160405280600481526020017f44726177000000000000000000000000000000000000000000000000000000008152508152602001600060018111156106b1576106b0611434565b5b81526020016003808111156106c9576106c8611434565b5b81525060046000600260008154809291906106e390611868565b91905055815260200190815260200160002060008201518160000155602082015181600101556040820151816002015560608201518160030155608082015181600401908051906020019061073992919061109b565b5060a082015181600501908051906020019061075692919061109b565b5060c082015181600601908051906020019061077392919061109b565b5060e08201518160070160006101000a81548160ff0219169083600181111561079f5761079e611434565b5b02179055506101008201518160070160016101000a81548160ff021916908360038111156107d0576107cf611434565b5b02179055509050507fe68634c9edcdbaeea52b881478be5ae66242fa68b9777177130399c6db231f63600254600080600086866000600360405161081b9897969594939291906119d2565b60405180910390a15050565b816000811015801561083a575060025481105b61084357600080fd5b600034118015610861575060008210158015610860575060028211155b5b61086a57600080fd5b60008054906101000a900473ffffffffffffffffffffffffffffffffffffffff1673ffffffffffffffffffffffffffffffffffffffff166108fc349081150290604051600060405180830381858888f193505050501580156108d0573d6000803e3d6000fd5b506040518060a0016040528060035481526020013373ffffffffffffffffffffffffffffffffffffffff16815260200184815260200183815260200134815250600560006003600081548092919061092790611868565b9190505581526020019081526020016000206000820151816000015560208201518160010160006101000a81548173ffffffffffffffffffffffffffffffffffffffff021916908373ffffffffffffffffffffffffffffffffffffffff16021790555060408201518160020155606082015181600301556080820151816004015590505060008214156109e657346004600085815260200190815260200160002060010160008282546109da9190611a72565b92505081905550610a5a565b6001821415610a215734600460008581526020019081526020016000206002016000828254610a159190611a72565b92505081905550610a59565b6002821415610a585734600460008581526020019081526020016000206003016000828254610a509190611a72565b925050819055505b5b5b3460016000828254610a6c9190611a72565b92505081905550505050565b60008054906101000a900473ffffffffffffffffffffffffffffffffffffffff1681565b336000806101000a81548173ffffffffffffffffffffffffffffffffffffffff021916908373ffffffffffffffffffffffffffffffffffffffff160217905550565b60008054906101000a900473ffffffffffffffffffffffffffffffffffffffff1673ffffffffffffffffffffffffffffffffffffffff163373ffffffffffffffffffffffffffffffffffffffff1614610b3657600080fd5b600073ffffffffffffffffffffffffffffffffffffffff168173ffffffffffffffffffffffffffffffffffffffff161415610b7057600080fd5b8073ffffffffffffffffffffffffffffffffffffffff1660008054906101000a900473ffffffffffffffffffffffffffffffffffffffff1673ffffffffffffffffffffffffffffffffffffffff167f8be0079c531659141344cd1fd0a4f28419497f9722a3daafe3b4186f6b6457e060405160405180910390a3806000806101000a81548173ffffffffffffffffffffffffffffffffffffffff021916908373ffffffffffffffffffffffffffffffffffffffff16021790555050565b60008054906101000a900473ffffffffffffffffffffffffffffffffffffffff1673ffffffffffffffffffffffffffffffffffffffff163373ffffffffffffffffffffffffffffffffffffffff1614610c8557600080fd5b8060008110158015610c98575060025481105b610ca157600080fd5b610cad82600080610ccb565b610cba8260016000610ccb565b610cc78260026000610ccb565b5050565b60008054906101000a900473ffffffffffffffffffffffffffffffffffffffff1673ffffffffffffffffffffffffffffffffffffffff163373ffffffffffffffffffffffffffffffffffffffff1614610d2357600080fd5b8260008110158015610d36575060025481105b610d3f57600080fd5b60606000610d4d8686610228565b809250819350505060005b81811015610dbb57610da887848381518110610d7757610d766118b1565b5b602002602001015160200151858481518110610d9657610d956118b1565b5b60200260200101516080015188610dc4565b8080610db390611868565b915050610d58565b50505050505050565b8360008110158015610dd7575060025481105b610de057600080fd5b60006001811115610df457610df3611434565b5b6004600087815260200190815260200160002060070160009054906101000a900460ff166001811115610e2a57610e29611434565b5b1415610ea457826001541015610e3f57600080fd5b8373ffffffffffffffffffffffffffffffffffffffff166108fc849081150290604051600060405180830381858888f19350505050158015610e85573d6000803e3d6000fd5b508260016000828254610e989190611ac8565b92505081905550610f24565b6000610eb1868585610f2b565b9050806001541015610ec257600080fd5b8473ffffffffffffffffffffffffffffffffffffffff166108fc829081150290604051600060405180830381858888f19350505050158015610f08573d6000803e3d6000fd5b508060016000828254610f1b9190611ac8565b92505081905550505b5050505050565b6000806000905060006003811115610f4657610f45611434565b5b6004600087815260200190815260200160002060070160019054906101000a900460ff166003811115610f7c57610f7b611434565b5b1415610fa0576004600086815260200190815260200160002060010154905061107a565b60016003811115610fb457610fb3611434565b5b6004600087815260200190815260200160002060070160019054906101000a900460ff166003811115610fea57610fe9611434565b5b141561100e5760046000868152602001908152602001600020600201549050611079565b6002600381111561102257611021611434565b5b6004600087815260200190815260200160002060070160019054906101000a900460ff16600381111561105857611057611434565b5b141561107857600460008681526020019081526020016000206003015490505b5b5b8281856110879190611b2b565b6110919190611b5c565b9150509392505050565b8280546110a79061190f565b90600052602060002090601f0160209004810192826110c95760008555611110565b82601f106110e257805160ff1916838001178555611110565b82800160010185558215611110579182015b8281111561110f5782518255916020019190600101906110f4565b5b50905061111d9190611121565b5090565b5b8082111561113a576000816000905550600101611122565b5090565b6000604051905090565b600080fd5b600080fd5b6000819050919050565b61116581611152565b811461117057600080fd5b50565b6000813590506111828161115c565b92915050565b6000806040838503121561119f5761119e611148565b5b60006111ad85828601611173565b92505060206111be85828601611173565b9150509250929050565b600081519050919050565b600082825260208201905092915050565b6000819050602082019050919050565b6111fd81611152565b82525050565b600073ffffffffffffffffffffffffffffffffffffffff82169050919050565b600061122e82611203565b9050919050565b61123e81611223565b82525050565b60a08201600082015161125a60008501826111f4565b50602082015161126d6020850182611235565b50604082015161128060408501826111f4565b50606082015161129360608501826111f4565b5060808201516112a660808501826111f4565b50505050565b60006112b88383611244565b60a08301905092915050565b6000602082019050919050565b60006112dc826111c8565b6112e681856111d3565b93506112f1836111e4565b8060005b8381101561132257815161130988826112ac565b9750611314836112c4565b9250506001810190506112f5565b5085935050505092915050565b61133881611152565b82525050565b6000604082019050818103600083015261135881856112d1565b9050611367602083018461132f565b9392505050565b60006020828403121561138457611383611148565b5b600061139284828501611173565b91505092915050565b600081519050919050565b600082825260208201905092915050565b60005b838110156113d55780820151818401526020810190506113ba565b838111156113e4576000848401525b50505050565b6000601f19601f8301169050919050565b60006114068261139b565b61141081856113a6565b93506114208185602086016113b7565b611429816113ea565b840191505092915050565b7f4e487b7100000000000000000000000000000000000000000000000000000000600052602160045260246000fd5b6002811061147457611473611434565b5b50565b600081905061148582611463565b919050565b600061149582611477565b9050919050565b6114a58161148a565b82525050565b600481106114bc576114bb611434565b5b50565b60008190506114cd826114ab565b919050565b60006114dd826114bf565b9050919050565b6114ed816114d2565b82525050565b600061012082019050611509600083018c61132f565b611516602083018b61132f565b611523604083018a61132f565b611530606083018961132f565b818103608083015261154281886113fb565b905081810360a083015261155681876113fb565b905081810360c083015261156a81866113fb565b905061157960e083018561149c565b6115876101008301846114e4565b9a9950505050505050505050565b61159e81611223565b82525050565b600060a0820190506115b9600083018861132f565b6115c66020830187611595565b6115d3604083018661132f565b6115e0606083018561132f565b6115ed608083018461132f565b9695505050505050565b600080fd5b600080fd5b7f4e487b7100000000000000000000000000000000000000000000000000000000600052604160045260246000fd5b611639826113ea565b810181811067ffffffffffffffff8211171561165857611657611601565b5b80604052505050565b600061166b61113e565b90506116778282611630565b919050565b600067ffffffffffffffff82111561169757611696611601565b5b6116a0826113ea565b9050602081019050919050565b82818337600083830152505050565b60006116cf6116ca8461167c565b611661565b9050828152602081018484840111156116eb576116ea6115fc565b5b6116f68482856116ad565b509392505050565b600082601f830112611713576117126115f7565b5b81356117238482602086016116bc565b91505092915050565b6000806040838503121561174357611742611148565b5b600083013567ffffffffffffffff8111156117615761176061114d565b5b61176d858286016116fe565b925050602083013567ffffffffffffffff81111561178e5761178d61114d565b5b61179a858286016116fe565b9150509250929050565b60006117af82611203565b9050919050565b6117bf816117a4565b82525050565b60006020820190506117da60008301846117b6565b92915050565b6117e9816117a4565b81146117f457600080fd5b50565b600081359050611806816117e0565b92915050565b60006020828403121561182257611821611148565b5b6000611830848285016117f7565b91505092915050565b7f4e487b7100000000000000000000000000000000000000000000000000000000600052601160045260246000fd5b600061187382611152565b91507fffffffffffffffffffffffffffffffffffffffffffffffffffffffffffffffff8214156118a6576118a5611839565b5b600182019050919050565b7f4e487b7100000000000000000000000000000000000000000000000000000000600052603260045260246000fd5b7f4e487b7100000000000000000000000000000000000000000000000000000000600052602260045260246000fd5b6000600282049050600182168061192757607f821691505b6020821081141561193b5761193a6118e0565b5b50919050565b6000819050919050565b6000819050919050565b600061197061196b61196684611941565b61194b565b611152565b9050919050565b61198081611955565b82525050565b7f4472617700000000000000000000000000000000000000000000000000000000600082015250565b60006119bc6004836113a6565b91506119c782611986565b602082019050919050565b6000610120820190506119e8600083018b61132f565b6119f5602083018a611977565b611a026040830189611977565b611a0f6060830188611977565b8181036080830152611a2181876113fb565b905081810360a0830152611a3581866113fb565b905081810360c0830152611a48816119af565b9050611a5760e083018561149c565b611a656101008301846114e4565b9998505050505050505050565b6000611a7d82611152565b9150611a8883611152565b9250827fffffffffffffffffffffffffffffffffffffffffffffffffffffffffffffffff03821115611abd57611abc611839565b5b828201905092915050565b6000611ad382611152565b9150611ade83611152565b925082821015611af157611af0611839565b5b828203905092915050565b7f4e487b7100000000000000000000000000000000000000000000000000000000600052601260045260246000fd5b6000611b3682611152565b9150611b4183611152565b925082611b5157611b50611afc565b5b828204905092915050565b6000611b6782611152565b9150611b7283611152565b9250817fffffffffffffffffffffffffffffffffffffffffffffffffffffffffffffffff0483118215151615611bab57611baa611839565b5b82820290509291505056fea2646970667358221220ed36ce2f5e7d72dbd4d8ed79f2fd123e2a10d770c963fe9374464aca44aec40f64736f6c634300080b0033",
  "immutableReferences": {},
  "source": "// SPDX-License-Identifier: MIT\r\npragma solidity ^0.8.6;\r\n\r\nimport \"./ownable.sol\";\r\n\r\ncontract Bets is Ownable {\r\n  //address public poolCommissions;\r\n  //uint public CommissionPercentage = 10;\r\n    uint balance = 0;\r\n    uint betsCounter = 0;\r\n    uint puntersCounter = 0;\r\n\r\n    enum State {ACTIVE, FINALIZED}\r\n    enum Winner {A, B, DRAW, UNDEFINED}\r\n\r\n    struct Bet {\r\n        uint betId;\r\n        uint poolA; //0: A, 1: B, 3: Draw \r\n        uint poolB;\r\n        uint poolDraw;\r\n        string optionA;\r\n        string optionB;\r\n        string optionC;\r\n        State state;\r\n        Winner winner;\r\n    }\r\n    struct Punter {\r\n        uint punterId;\r\n        address payable account;\r\n        uint betId;\r\n        uint choiceId;\r\n        uint amount; \r\n    }\r\n\r\n    mapping (uint256 => Bet) public bets;\r\n    mapping (uint256 => Punter) public punters;\r\n\r\n    event BetCreated(\r\n        uint betId,\r\n        uint poolA,\r\n        uint poolB,\r\n        uint poolDraw,\r\n        string optionA,\r\n        string optionB,\r\n        string optionC,\r\n        State state,\r\n        Winner winner\r\n    );\r\n\r\n    event Constructor(\r\n        string messeger\r\n    );\r\n\r\n    constructor() {\r\n        ownable();\r\n        emit Constructor(\"keep building pa!\");\r\n    }\r\n\r\n    function createBet(string memory a, string memory b) public onlyOwner() {\r\n        bets[betsCounter++] =\r\n             Bet(betsCounter, 0, 0, 0, a, b, \"Draw\", State.ACTIVE, Winner.UNDEFINED);\r\n\r\n        emit BetCreated(betsCounter, 0, 0, 0, a, b, \"Draw\", State.ACTIVE, Winner.UNDEFINED);\r\n    }\r\n\r\n    /**\r\n        choice: 0 => optionA, 1 => optionB, 2 => optionDraw\r\n     */\r\n    function bet(uint betId, uint choice) external payable isValid(betId) {\r\n        require(msg.value > 0 && (choice >= 0 && choice <= 2));\r\n       \r\n        payable(owner).transfer(msg.value);\r\n        punters[puntersCounter++] = Punter({\r\n            punterId: puntersCounter,\r\n            account: payable(msg.sender),\r\n            betId: betId,\r\n            choiceId: choice,\r\n            amount: msg.value\r\n        });\r\n        if (choice == 0) {\r\n            bets[betId].poolA += msg.value; //TODO menos el fee\r\n        } else if (choice == 1) {\r\n            bets[betId].poolB += msg.value;\r\n        } else if (choice == 2) {\r\n            bets[betId].poolDraw += msg.value;\r\n        }\r\n        balance += msg.value;\r\n    }\r\n\r\n    function getPunters(uint _betId, uint option) public view  isValid(_betId) returns (Punter [] memory, uint size) {\r\n        Punter[] memory toReturn;\r\n        uint counter = 0;\r\n        for (uint i = 0; i <= puntersCounter; i++) {\r\n            if (punters[i].betId == _betId) {\r\n                if(punters[i].choiceId == option) {\r\n                    toReturn[counter++] = punters[i];\r\n                }\r\n            }\r\n        }\r\n        return (toReturn, counter);\r\n    }\r\n\r\n    function setWinner(uint _betId, Winner winner) private isValid(_betId) onlyOwner() {\r\n        bets[_betId].winner = winner;\r\n        bets[_betId].state = State.FINALIZED;\r\n        uint poolWinners;\r\n        \r\n        poolWinners = bets[_betId].poolA + bets[_betId].poolB + bets[_betId].poolDraw;\r\n\r\n        distributeProfit(_betId, poolWinners);\r\n    }\r\n\r\n    function distributeProfit(uint _betId, uint poolWinners) private onlyOwner() isValid(_betId) {\r\n        if (bets[_betId].winner == Winner.A) {\r\n            distributeAux(_betId, 0, poolWinners);\r\n        } else if (bets[_betId].winner == Winner.B) {\r\n            distributeAux(_betId, 1, poolWinners);\r\n        } else if (bets[_betId].winner == Winner.DRAW) {\r\n            distributeAux(_betId, 2, poolWinners);\r\n        }\r\n    } \r\n\r\n    function refound(uint _betId) public onlyOwner() isValid(_betId) {\r\n        distributeAux(_betId, 0, 0);\r\n        distributeAux(_betId, 1, 0);\r\n        distributeAux(_betId, 2, 0);\r\n    }\r\n\r\n    function distributeAux(uint _betId, uint option, uint poolWinners) private onlyOwner() isValid(_betId) {\r\n         Punter[] memory punter;\r\n         uint size;\r\n        (punter,size) = getPunters(_betId, option);\r\n        for (uint i = 0; i < size; i++) {\r\n            sendProfit(_betId, punter[i].account, punter[i].amount, poolWinners);\r\n        }\r\n    }\r\n\r\n    function sendProfit(uint _betId, address payable winner, uint amount, uint poolWinners) private isValid(_betId) {\r\n        if(bets[_betId].state == State.ACTIVE) { //is refound\r\n            require(balance >= amount);\r\n            winner.transfer(amount);\r\n            balance -= amount;\r\n        } else { //is not refound\r\n            uint profit = calculateProfit(_betId, amount, poolWinners);\r\n            require(balance >= profit);\r\n            winner.transfer(profit);\r\n            balance -= profit;\r\n        }\r\n    }\r\n\r\n    function calculateProfit(uint _betId, uint amount, uint poolWinners) private view returns (uint) {\r\n        uint poolPunters = 0;\r\n        if (bets[_betId].winner == Winner.A) {\r\n            poolPunters = bets[_betId].poolA;\r\n        } else if (bets[_betId].winner == Winner.B) {\r\n            poolPunters = bets[_betId].poolB;\r\n        } else if (bets[_betId].winner == Winner.DRAW) {\r\n            poolPunters = bets[_betId].poolDraw;\r\n        }\r\n        return (amount / poolPunters) * poolWinners; //TODO menos el fee\r\n    }\r\n\r\n    modifier isValid(uint betId) {\r\n        require(betId >= 0 && betId < betsCounter);\r\n        _;\r\n    }\r\n}",
  "sourcePath": "C:\\Users\\agust\\Desktop\\contractBets\\contracts\\Bets.sol",
  "compiler": {
    "name": "solc",
    "version": "0.8.11+commit.d7f03943.Emscripten.clang"
  },
  "schemaVersion": "3.4.4",
  "updatedAt": "2022-01-25T21:19:56.019Z",
  "networkType": "ethereum",
  "devdoc": {
    "kind": "dev",
    "methods": {
      "ownable()": {
        "details": "The Ownable constructor sets the original `owner` of the contract to the sender account."
      },
      "transferOwnership(address)": {
        "details": "Allows the current owner to transfer control of the contract to a newOwner.",
        "params": {
          "newOwner": "The address to transfer ownership to."
        }
      }
    },
    "version": 1
  },
  "userdoc": {
    "kind": "user",
    "methods": {
      "bet(uint256,uint256)": {
        "notice": "choice: 0 => optionA, 1 => optionB, 2 => optionDraw"
      }
    },
    "version": 1
  }
}