{
  "contractName": "Bets",
  "abi": [
    {
      "anonymous": false,
      "inputs": [
        {
          "indexed": true,
          "internalType": "address",
          "name": "previousOwner",
          "type": "address"
        },
        {
          "indexed": true,
          "internalType": "address",
          "name": "newOwner",
          "type": "address"
        }
      ],
      "name": "OwnershipTransferred",
      "type": "event"
    },
    {
      "inputs": [],
      "name": "balance",
      "outputs": [
        {
          "internalType": "uint256",
          "name": "",
          "type": "uint256"
        }
      ],
      "stateMutability": "view",
      "type": "function"
    },
    {
      "inputs": [],
      "name": "ownable",
      "outputs": [],
      "stateMutability": "nonpayable",
      "type": "function"
    },
    {
      "inputs": [],
      "name": "owner",
      "outputs": [
        {
          "internalType": "address payable",
          "name": "",
          "type": "address"
        }
      ],
      "stateMutability": "view",
      "type": "function"
    },
    {
      "inputs": [
        {
          "internalType": "address payable",
          "name": "newOwner",
          "type": "address"
        }
      ],
      "name": "transferOwnership",
      "outputs": [],
      "stateMutability": "nonpayable",
      "type": "function"
    },
    {
      "inputs": [
        {
          "internalType": "string",
          "name": "a",
          "type": "string"
        },
        {
          "internalType": "string",
          "name": "b",
          "type": "string"
        }
      ],
      "name": "createBet",
      "outputs": [],
      "stateMutability": "nonpayable",
      "type": "function"
    },
    {
      "inputs": [
        {
          "internalType": "uint256",
          "name": "betId",
          "type": "uint256"
        },
        {
          "internalType": "uint256",
          "name": "choice",
          "type": "uint256"
        },
        {
          "internalType": "address payable",
          "name": "from",
          "type": "address"
        }
      ],
      "name": "bet",
      "outputs": [],
      "stateMutability": "payable",
      "type": "function"
    },
    {
      "inputs": [
        {
          "internalType": "uint256",
          "name": "_betId",
          "type": "uint256"
        },
        {
          "internalType": "uint256",
          "name": "option",
          "type": "uint256"
        }
      ],
      "name": "getPunters",
      "outputs": [
        {
          "components": [
            {
              "internalType": "address payable",
              "name": "account",
              "type": "address"
            },
            {
              "internalType": "uint256",
              "name": "betId",
              "type": "uint256"
            },
            {
              "internalType": "uint256",
              "name": "choiceId",
              "type": "uint256"
            },
            {
              "internalType": "uint256",
              "name": "amount",
              "type": "uint256"
            }
          ],
          "internalType": "struct Bets.Punter[]",
          "name": "",
          "type": "tuple[]"
        },
        {
          "internalType": "uint256",
          "name": "size",
          "type": "uint256"
        }
      ],
      "stateMutability": "view",
      "type": "function"
    },
    {
      "inputs": [
        {
          "internalType": "uint256",
          "name": "_betId",
          "type": "uint256"
        }
      ],
      "name": "refound",
      "outputs": [],
      "stateMutability": "nonpayable",
      "type": "function"
    }
  ],
  "bytecode": "0x60806040526000600255600060035534801561001a57600080fd5b506115698061002a6000396000f3fe60806040526004361061007b5760003560e01c8063b38854be1161004e578063b38854be1461012e578063b69ef8a814610145578063f2fde38b14610170578063fcc4dec9146101995761007b565b806302c0b046146100805780634de067f2146100be57806372de8bd4146100e75780638da5cb5b14610103575b600080fd5b34801561008c57600080fd5b506100a760048036038101906100a29190610e38565b6101c2565b6040516100b5929190610fdb565b60405180910390f35b3480156100ca57600080fd5b506100e560048036038101906100e09190611151565b61030f565b005b61010160048036038101906100fc91906111f5565b61052d565b005b34801561010f57600080fd5b506101186106fd565b6040516101259190611257565b60405180910390f35b34801561013a57600080fd5b50610143610721565b005b34801561015157600080fd5b5061015a610763565b6040516101679190611272565b60405180910390f35b34801561017c57600080fd5b506101976004803603810190610192919061128d565b610769565b005b3480156101a557600080fd5b506101c060048036038101906101bb91906112ba565b6108b8565b005b6060600083600081101580156101d9575060025481105b6101e257600080fd5b60606000805b60035481116102fe5787600560008381526020019081526020016000206001015414156102eb5786600560008381526020019081526020016000206002015414156102ea57600560008281526020019081526020016000206040518060800160405290816000820160009054906101000a900473ffffffffffffffffffffffffffffffffffffffff1673ffffffffffffffffffffffffffffffffffffffff1673ffffffffffffffffffffffffffffffffffffffff16815260200160018201548152602001600282015481526020016003820154815250508383806102cb90611316565b9450815181106102de576102dd61135f565b5b60200260200101819052505b5b80806102f690611316565b9150506101e8565b508181945094505050509250929050565b60008054906101000a900473ffffffffffffffffffffffffffffffffffffffff1673ffffffffffffffffffffffffffffffffffffffff163373ffffffffffffffffffffffffffffffffffffffff161461036757600080fd5b61036f610c0b565b82816000600381106103845761038361135f565b5b602002018190525081816001600381106103a1576103a061135f565b5b60200201819052506040518060400160405280600481526020017f6472617700000000000000000000000000000000000000000000000000000000815250816002600381106103f3576103f261135f565b5b6020020181905250610403610c32565b6000816000600381106104195761041861135f565b5b6020020181815250506000816001600381106104385761043761135f565b5b6020020181815250506000816002600381106104575761045661135f565b5b6020020181815250506040518060800160405280828152602001838152602001600060ff168152602001600360ff1681525060046000600260008154809291906104a090611316565b9190505581526020019081526020016000206000820151816000019060036104c9929190610c54565b506020820151816003019060036104e1929190610c94565b5060408201518160060160006101000a81548160ff021916908360ff16021790555060608201518160060160016101000a81548160ff021916908360ff16021790555090505050505050565b8260008110158015610540575060025481105b61054957600080fd5b60003411801561055a575060008310155b80156105665750600383105b61056f57600080fd5b60008054906101000a900473ffffffffffffffffffffffffffffffffffffffff1673ffffffffffffffffffffffffffffffffffffffff166108fc349081150290604051600060405180830381858888f193505050501580156105d5573d6000803e3d6000fd5b5060405180608001604052808373ffffffffffffffffffffffffffffffffffffffff16815260200185815260200184815260200134815250600560006003600081548092919061062490611316565b91905055815260200190815260200160002060008201518160000160006101000a81548173ffffffffffffffffffffffffffffffffffffffff021916908373ffffffffffffffffffffffffffffffffffffffff160217905550602082015181600101556040820151816002015560608201518160030155905050346004600086815260200190815260200160002060000184600381106106c7576106c661135f565b5b0160008282546106d7919061138e565b9250508190555034600160008282546106f0919061138e565b9250508190555050505050565b60008054906101000a900473ffffffffffffffffffffffffffffffffffffffff1681565b336000806101000a81548173ffffffffffffffffffffffffffffffffffffffff021916908373ffffffffffffffffffffffffffffffffffffffff160217905550565b60015481565b60008054906101000a900473ffffffffffffffffffffffffffffffffffffffff1673ffffffffffffffffffffffffffffffffffffffff163373ffffffffffffffffffffffffffffffffffffffff16146107c157600080fd5b600073ffffffffffffffffffffffffffffffffffffffff168173ffffffffffffffffffffffffffffffffffffffff1614156107fb57600080fd5b8073ffffffffffffffffffffffffffffffffffffffff1660008054906101000a900473ffffffffffffffffffffffffffffffffffffffff1673ffffffffffffffffffffffffffffffffffffffff167f8be0079c531659141344cd1fd0a4f28419497f9722a3daafe3b4186f6b6457e060405160405180910390a3806000806101000a81548173ffffffffffffffffffffffffffffffffffffffff021916908373ffffffffffffffffffffffffffffffffffffffff16021790555050565b60008054906101000a900473ffffffffffffffffffffffffffffffffffffffff1673ffffffffffffffffffffffffffffffffffffffff163373ffffffffffffffffffffffffffffffffffffffff161461091057600080fd5b8060008110158015610923575060025481105b61092c57600080fd5b61093882600080610956565b6109458260016000610956565b6109528260026000610956565b5050565b60008054906101000a900473ffffffffffffffffffffffffffffffffffffffff1673ffffffffffffffffffffffffffffffffffffffff163373ffffffffffffffffffffffffffffffffffffffff16146109ae57600080fd5b82600081101580156109c1575060025481105b6109ca57600080fd5b606060006109d886866101c2565b809250819350505060005b81811015610a4657610a3387848381518110610a0257610a0161135f565b5b602002602001015160000151858481518110610a2157610a2061135f565b5b60200260200101516060015188610a4f565b8080610a3e90611316565b9150506109e3565b50505050505050565b8360008110158015610a62575060025481105b610a6b57600080fd5b60006004600087815260200190815260200160002060060160009054906101000a900460ff1660ff161415610b0e57826001541015610aa957600080fd5b8373ffffffffffffffffffffffffffffffffffffffff166108fc849081150290604051600060405180830381858888f19350505050158015610aef573d6000803e3d6000fd5b508260016000828254610b0291906113e4565b92505081905550610b8e565b6000610b1b868585610b95565b9050806001541015610b2c57600080fd5b8473ffffffffffffffffffffffffffffffffffffffff166108fc829081150290604051600060405180830381858888f19350505050158015610b72573d6000803e3d6000fd5b508060016000828254610b8591906113e4565b92505081905550505b5050505050565b600080600460008681526020019081526020016000206000016004600087815260200190815260200160002060060160019054906101000a900460ff1660ff1660038110610be657610be561135f565b5b01549050828185610bf79190611447565b610c019190611478565b9150509392505050565b60405180606001604052806003905b6060815260200190600190039081610c1a5790505090565b6040518060600160405280600390602082028036833780820191505090505090565b8260038101928215610c83579160200282015b82811115610c82578251825591602001919060010190610c67565b5b509050610c909190610ce7565b5090565b8260038101928215610cd6579160200282015b82811115610cd5578251829080519060200190610cc5929190610d04565b5091602001919060010190610ca7565b5b509050610ce39190610d8a565b5090565b5b80821115610d00576000816000905550600101610ce8565b5090565b828054610d1090611501565b90600052602060002090601f016020900481019282610d325760008555610d79565b82601f10610d4b57805160ff1916838001178555610d79565b82800160010185558215610d79579182015b82811115610d78578251825591602001919060010190610d5d565b5b509050610d869190610ce7565b5090565b5b80821115610daa5760008181610da19190610dae565b50600101610d8b565b5090565b508054610dba90611501565b6000825580601f10610dcc5750610deb565b601f016020900490600052602060002090810190610dea9190610ce7565b5b50565b6000604051905090565b600080fd5b600080fd5b6000819050919050565b610e1581610e02565b8114610e2057600080fd5b50565b600081359050610e3281610e0c565b92915050565b60008060408385031215610e4f57610e4e610df8565b5b6000610e5d85828601610e23565b9250506020610e6e85828601610e23565b9150509250929050565b600081519050919050565b600082825260208201905092915050565b6000819050602082019050919050565b600073ffffffffffffffffffffffffffffffffffffffff82169050919050565b6000610ecf82610ea4565b9050919050565b610edf81610ec4565b82525050565b610eee81610e02565b82525050565b608082016000820151610f0a6000850182610ed6565b506020820151610f1d6020850182610ee5565b506040820151610f306040850182610ee5565b506060820151610f436060850182610ee5565b50505050565b6000610f558383610ef4565b60808301905092915050565b6000602082019050919050565b6000610f7982610e78565b610f838185610e83565b9350610f8e83610e94565b8060005b83811015610fbf578151610fa68882610f49565b9750610fb183610f61565b925050600181019050610f92565b5085935050505092915050565b610fd581610e02565b82525050565b60006040820190508181036000830152610ff58185610f6e565b90506110046020830184610fcc565b9392505050565b600080fd5b600080fd5b6000601f19601f8301169050919050565b7f4e487b7100000000000000000000000000000000000000000000000000000000600052604160045260246000fd5b61105e82611015565b810181811067ffffffffffffffff8211171561107d5761107c611026565b5b80604052505050565b6000611090610dee565b905061109c8282611055565b919050565b600067ffffffffffffffff8211156110bc576110bb611026565b5b6110c582611015565b9050602081019050919050565b82818337600083830152505050565b60006110f46110ef846110a1565b611086565b9050828152602081018484840111156111105761110f611010565b5b61111b8482856110d2565b509392505050565b600082601f8301126111385761113761100b565b5b81356111488482602086016110e1565b91505092915050565b6000806040838503121561116857611167610df8565b5b600083013567ffffffffffffffff81111561118657611185610dfd565b5b61119285828601611123565b925050602083013567ffffffffffffffff8111156111b3576111b2610dfd565b5b6111bf85828601611123565b9150509250929050565b6111d281610ec4565b81146111dd57600080fd5b50565b6000813590506111ef816111c9565b92915050565b60008060006060848603121561120e5761120d610df8565b5b600061121c86828701610e23565b935050602061122d86828701610e23565b925050604061123e868287016111e0565b9150509250925092565b61125181610ec4565b82525050565b600060208201905061126c6000830184611248565b92915050565b60006020820190506112876000830184610fcc565b92915050565b6000602082840312156112a3576112a2610df8565b5b60006112b1848285016111e0565b91505092915050565b6000602082840312156112d0576112cf610df8565b5b60006112de84828501610e23565b91505092915050565b7f4e487b7100000000000000000000000000000000000000000000000000000000600052601160045260246000fd5b600061132182610e02565b91507fffffffffffffffffffffffffffffffffffffffffffffffffffffffffffffffff821415611354576113536112e7565b5b600182019050919050565b7f4e487b7100000000000000000000000000000000000000000000000000000000600052603260045260246000fd5b600061139982610e02565b91506113a483610e02565b9250827fffffffffffffffffffffffffffffffffffffffffffffffffffffffffffffffff038211156113d9576113d86112e7565b5b828201905092915050565b60006113ef82610e02565b91506113fa83610e02565b92508282101561140d5761140c6112e7565b5b828203905092915050565b7f4e487b7100000000000000000000000000000000000000000000000000000000600052601260045260246000fd5b600061145282610e02565b915061145d83610e02565b92508261146d5761146c611418565b5b828204905092915050565b600061148382610e02565b915061148e83610e02565b9250817fffffffffffffffffffffffffffffffffffffffffffffffffffffffffffffffff04831182151516156114c7576114c66112e7565b5b828202905092915050565b7f4e487b7100000000000000000000000000000000000000000000000000000000600052602260045260246000fd5b6000600282049050600182168061151957607f821691505b6020821081141561152d5761152c6114d2565b5b5091905056fea26469706673582212204dfcb22598eb0430d58a5243493f8ae32cf29107ad06f3f1f2c0be6fb872a5b064736f6c634300080b0033",
  "immutableReferences": {},
  "source": "// SPDX-License-Identifier: MIT\r\npragma solidity ^0.8.6;\r\n\r\nimport \"./ownable.sol\";\r\n\r\ncontract Bets is Ownable {\r\n  //address public poolCommissions;\r\n  //uint public CommissionPercentage = 10;\r\n    uint public balance;\r\n    uint betsCounter = 0;\r\n    uint puntersCounter = 0;\r\n\r\n    struct Bet {\r\n        uint[3] poolsRewards; //0: A, 1: B, 3: Draw \r\n        string[3] options;\r\n        uint8 state; //0: active, 1: finalized //TODO enum\r\n        uint8 winner;\r\n    }\r\n    struct Punter {\r\n        address payable account;\r\n        uint betId;\r\n        uint choiceId;\r\n        uint amount; \r\n    }\r\n\r\n    mapping (uint256 => Bet) bets;\r\n    mapping (uint => Punter) punters;\r\n\r\n    function createBet(string memory a, string memory b) public onlyOwner() {\r\n        string[3] memory options;\r\n        options[0] = a;\r\n        options[1] = b;\r\n        options[2] = \"draw\";\r\n        uint[3] memory pools;\r\n        pools[0] = 0;\r\n        pools[1] = 0;\r\n        pools[2] = 0;\r\n        bets[betsCounter++] = Bet(pools, options, 0, 3);\r\n    }\r\n\r\n    function bet(uint betId, uint choice, address payable from) external payable isValid(betId) {\r\n        require(msg.value > 0 && choice >= 0 && choice < 3);\r\n        owner.transfer(msg.value);\r\n        punters[puntersCounter++] = Punter({\r\n            account: from,\r\n            betId: betId,\r\n            choiceId: choice,\r\n            amount: msg.value\r\n        });\r\n        bets[betId].poolsRewards[choice] += msg.value; //TODO menos el fee\r\n        balance += msg.value;\r\n    }\r\n\r\n    function getPunters(uint _betId, uint option) public view  isValid(_betId) returns (Punter [] memory, uint size) {\r\n        Punter[] memory toReturn;\r\n        uint counter = 0;\r\n        for (uint i = 0; i <= puntersCounter; i++) {\r\n            if (punters[i].betId == _betId) {\r\n                if(punters[i].choiceId == option) {\r\n                    toReturn[counter++] = punters[i];\r\n                }\r\n            }\r\n        }\r\n        return (toReturn, counter);\r\n    }\r\n\r\n    function setWinner(uint _betId, uint winner) private isValid(_betId) onlyOwner() {\r\n        require(winner >= 0 && winner <= 2);\r\n        bets[_betId].winner = uint8(winner);\r\n        bets[_betId].state = 1;\r\n        uint poolWinners;\r\n        for (uint i = 0; i < 3; i++) {\r\n            poolWinners += bets[_betId].poolsRewards[i];\r\n        }\r\n        distributeProfit(_betId, poolWinners);\r\n    }\r\n\r\n    function distributeProfit(uint _betId, uint poolWinners) private onlyOwner() isValid(_betId) {\r\n        distributeAux(_betId, bets[_betId].winner, poolWinners);\r\n    } \r\n\r\n    function refound(uint _betId) public onlyOwner() isValid(_betId) {\r\n        distributeAux(_betId, 0, 0);\r\n        distributeAux(_betId, 1, 0);\r\n        distributeAux(_betId, 2, 0);\r\n    }\r\n\r\n    function distributeAux(uint _betId, uint option, uint poolWinners) private onlyOwner() isValid(_betId) {\r\n         Punter[] memory punter;\r\n         uint size;\r\n        (punter,size) = getPunters(_betId, option);\r\n        for (uint i = 0; i < size; i++) {\r\n            sendProfit(_betId, punter[i].account, punter[i].amount, poolWinners);\r\n        }\r\n    }\r\n\r\n    function sendProfit(uint _betId, address payable winner, uint amount, uint poolWinners) private isValid(_betId) {\r\n        if(bets[_betId].state == 0) { //is refound\r\n            require(balance >= amount);\r\n            winner.transfer(amount);\r\n            balance -= amount;\r\n        } else { //is not refound\r\n            uint profit = calculateProfit(_betId, amount, poolWinners);\r\n            require(balance >= profit);\r\n            winner.transfer(profit);\r\n            balance -= profit;\r\n        }\r\n    }\r\n\r\n    function calculateProfit(uint _betId, uint amount, uint poolWinners) private view returns (uint) {\r\n        uint poolPunters = bets[_betId].poolsRewards[bets[_betId].winner];\r\n        return (amount / poolPunters) * poolWinners; //TODO menos el fee\r\n    }\r\n\r\n    modifier isValid(uint betId) {\r\n        require(betId >= 0 && betId < betsCounter);\r\n        _;\r\n    }\r\n}",
  "sourcePath": "C:\\Users\\agust\\Desktop\\contractBets\\contracts\\Bets.sol",
  "compiler": {
    "name": "solc",
    "version": "0.8.11+commit.d7f03943.Emscripten.clang"
  },
  "schemaVersion": "3.4.4",
  "updatedAt": "2022-01-19T09:59:18.525Z",
  "devdoc": {
    "kind": "dev",
    "methods": {
      "ownable()": {
        "details": "The Ownable constructor sets the original `owner` of the contract to the sender account."
      },
      "transferOwnership(address)": {
        "details": "Allows the current owner to transfer control of the contract to a newOwner.",
        "params": {
          "newOwner": "The address to transfer ownership to."
        }
      }
    },
    "version": 1
  },
  "userdoc": {
    "kind": "user",
    "methods": {},
    "version": 1
  }
}